{
  "contractName": "NewContract",
  "abi": [
    {
      "inputs": [],
      "payable": false,
      "stateMutability": "nonpayable",
      "type": "constructor"
    },
    {
      "constant": true,
      "inputs": [],
      "name": "notNumber",
      "outputs": [
        {
          "internalType": "uint256",
          "name": "",
          "type": "uint256"
        }
      ],
      "payable": false,
      "stateMutability": "view",
      "type": "function"
    }
  ],
  "bytecode": "0x60806040526002600055348015601457600080fd5b5060008081548092919060010191905055506084806100346000396000f3fe6080604052348015600f57600080fd5b506004361060285760003560e01c8063ce56934414602d575b600080fd5b60336049565b6040518082815260200191505060405180910390f35b6000548156fea265627a7a723158204bbd586a290e1a9bf08d9dfd27c8d9229a585e494c1596d6685dd8bb447e8a9b64736f6c63430005100032",
  "source": "pragma solidity ^0.5.0;\r\n\r\ncontract NewContract {\r\n    uint public notNumber = 2;\r\n    constructor() public {\r\n        notNumber++;\r\n    }\r\n}",
  "sourcePath": "C:/Users/nrupa/Desktop/react-eth-template/src/contracts/NewContract.sol",
  "compiler": {
    "name": "solc",
    "version": "0.5.16+commit.9c3226ce.Emscripten.clang"
  },
  "schemaVersion": "3.2.3",
  "updatedAt": "2021-01-25T16:54:34.286Z",
  "networkType": "ethereum",
  "devdoc": {
    "methods": {}
  },
  "userdoc": {
    "methods": {}
  }
}